:100000000C9458000C9475000C9475000C947500B9
:100010000C9475000C9475000C9475000C9475008C
:100020000C9475000C942F020C9447020C947500EC
:100030000C9465020C9480020C9475000C9475006D
:100040000C9475000C9475000C9475000C9475005C
:100050000C9475000C9475000C9475000C9475004C
:100060000C9475000C9475000C9475000C9475003C
:100070000C9475000C9475000C94C6020C947500D9
:100080000C9475000C9475000C9475000C9475001C
:100090000C9475000C9475000C9475000C9475000C
:1000A0000C9475000C9475000C9475000C947500FC
:1000B00011241FBECFEFCDBFDFE7DEBF10E6A0E00B
:1000C000B0E6E8EFF5E102C005900D92AC36B1075D
:1000D000D9F720E6ACE6B0E601C01D92AA37B20718
:1000E000E1F70E9407040C94FA0A0C94000088EDD2
:1000F00094E184BF909368009EEF84BF9093610069
:1001000090E084BF9093600008959091440895FF1B
:10011000FCCF809342080895E0EAF4E0208121605A
:10012000208320812D7F2083BC0180E090E00E940D
:100130009A0520E030E040E851E40E9428069B0147
:10014000AC0160E074E284EF9DE40E94F90420E0D9
:1001500030E040E05FE30E948D040E946B05E0E424
:10016000F8E0608771878681806C868387818361F0
:1001700087838FEF99EF0197F1F700C00000089592
:10018000E0E0F4E08081806D80838FEB8093400914
:100190000895809344098091430987FFFCCF8091A3
:1001A00044090895CF93DF93613020E1720710F086
:1001B00060E070E1892B19F4C0E0D0E102C0C0E03A
:1001C000D0E9C62BD72B809104048F778093040449
:1001D0008D2F0E94C9008C2F0E94C90080910404B9
:1001E000806880930404DF91CF910895E0E6F4E005
:1001F000808181608083808182608083808184604F
:100200008083E0E4F4E080818460808387E08093F1
:10021000660484E08093460460E070E081E090E052
:100220000E94D20060E070E080E090E00C94D20088
:100230008091440887FFFCCF8091400808950F9378
:100240001F93CF93DF93EC018C01FE0101900020FE
:10025000E9F73197EC1BFD0BC8018C1B9D0B8E172A
:100260009F0730F4F80181918F010E948500EDCF46
:10027000DF91CF911F910F9108951F93CF93DF933B
:10028000EC0182E090E60E941F0110E00E9418013C
:100290008A3041F08D30D1F3FE01E10FF11D8083F2
:1002A0001F5FF4CFC10FD11D188283E190E6DF916B
:1002B000CF911F910C941F014F925F926F927F928A
:1002C0008F929F92AF92BF92CF92DF92EF92FF9266
:1002D0000F931F93CF93DF93CDB7DEB7D650CDBF2B
:1002E000DEBF5C014B016A017901FB0180839183D0
:1002F0008AE190E60E941F0110E01092786010924F
:1003000079604AE050E0B401C5010E94C90620911D
:10031000786030917960F40140815181A416B5066E
:1003200099F02232310581F0E1E0F0E0EC0FFD1FA1
:1003300024E0129FE00DF11D1124608371838283FC
:1003400093831F5F5A01D9CF812F63E00E949506E6
:10035000911140C01123F1F18BEA189F812D1124D6
:10036000869590E0F70180839183FE01319620E02D
:1003700030E0E12EF12C03E010E08AE0B82E2E15DB
:100380003F0554F5C901B8010E94A106B69ED001EF
:10039000B79EB00D1124AC0DBD1D44805580668004
:1003A00077804085518562857385808191818D93A9
:1003B0009C93119712964D925D926D927C92159737
:1003C00016964D935D936D937C9319972D5F3F4FD8
:1003D0003C96D5CF80E001C081E0DA5FCDBFDEBFC3
:1003E000DF91CF911F910F91FF90EF90DF90CF9011
:1003F000BF90AF909F908F907F906F905F904F9045
:100400000895E0E0FBE081E0858380E991E0848766
:1004100095870895E0E1FBE081E08583808182603B
:10042000808380E29EE4848795870895E0E2FBE084
:1004300081E0858380818260808380EA9FE0848779
:1004400095878081816080830895E0E0FAE01182E1
:1004500080E3828781858E7F8187108208951F9235
:100460000F920FB60F9211248F93EF93FF9384E0B6
:1004700080936604E0E0FAE0838580618387FF91E2
:10048000EF918F910F900FBE0F901F9018951F92B4
:100490000F920FB60F9211248F93EF93FF9381E089
:1004A00080936604E0E0FAE083858062838782853A
:1004B0008F7C828780818E7F8083FF91EF918F91E7
:1004C0000F900FBE0F901F9018951F920F920FB6AE
:1004D0000F9211248F93EF93FF9384E0809346044F
:1004E000E0E0FBE086818160868380818E7F80836F
:1004F000FF91EF918F910F900FBE0F901F90189565
:100500001F920F920FB60F9211242F933F934F9388
:100510005F936F937F938F939F93AF93BF93EF936B
:10052000FF9380916C6090916D60059680936C60F4
:1005300090936D6020916E6030916F608217930789
:1005400088F01092150B60E070E080E090E00E946F
:10055000D20010926C6010926D608091150B8E7FAE
:100560008093150B81E08093160BFF91EF91BF9163
:10057000AF919F918F917F916F915F914F913F913B
:100580002F910F900FBE0F901F9018951F920F92F2
:100590000FB60F9211248F939F93AF93BF93EF9356
:1005A000FF938091706090917160A0917260B091A2
:1005B00073600196A11DB11D80937060909371606E
:1005C000A0937260B0937360E0E2FBE0868181608B
:1005D0008683FF91EF91BF91AF919F918F910F9083
:1005E0000FBE0F901F9018958330910528F0880F4B
:1005F000991F04970197F1F70895CF92DF92EF9238
:10060000FF920F931F93CF936A017B01833018F001
:10061000CEEFC80F01C0C0E00C2F10E0C11480E283
:10062000D806E104F10468F18BE290E60E941F0114
:100630008CE08093000A80E280930A0ACC0ED11CE1
:10064000E11CF11C45E0F694E794D794C7944A95D1
:10065000D1F7C0922A0AD0922B0A1092200A109247
:10066000210A8091000A81608093000A85E08093CE
:100670006504C80102960E94F40284E08093660437
:100680002CC086E390E60E941F0180910A0A8063D5
:1006900080930A0A1092000AC80123E0880F991F6C
:1006A0002A95E1F78093280A9093290AC00ED11E5B
:1006B00033E0CC0CDD1C3A95E1F7C0922A0AD092C7
:1006C0002B0A1092200A1092210A8091000A816060
:1006D0008093000A85E080936504CF911F910F916C
:1006E000FF90EF90DF90CF900895CF92DF92EF923E
:1006F000FF920F931F93CF93DF936B011092706063
:10070000109271601092726010927360EC0100E0C0
:1007100010E0FF24F39484E0E82EC016D10609F41B
:100720006DC08091706090917160A0917260B09185
:1007300073604A815B816C817D8184179507A60770
:10074000B70758F3888199818230910559F174F483
:100750000097E9F0019709F04DC06E817F816093A9
:1007600074607093756081E090E019C084309105E9
:10077000D9F104F10597F1F510920A0B10920B0BC9
:10078000F092050BF092000BE092450433C06E81AD
:100790007F81609376607093776080E090E00E9444
:1007A000D20028C04E815F816885798580E00E94F3
:1007B000FD0220C010921A0B10921B0BF092150B29
:1007C0008E819F8180936E6090936F6060910060D6
:1007D0007091016080E090E00E94D2008091100B47
:1007E00081608093100B06C08E819F818093006092
:1007F000909301600F5F1F4F2A968FCFDF91CF91AB
:100800001F910F91FF90EF90DF90CF900895CF93BD
:10081000DF93CDB7DEB7C450D740CDBFDEBF0E9457
:1008200077000E94C0000E94F6000E9425020E94EC
:1008300001020E940A020E94160280E895E20E94CC
:100840008C0078947E018FEFE81A8AEFF80A8AE428
:10085000A82E80E6B82EC7010E943D01CF5FD84F79
:1008600018821982C150D7409E012F5F384FAE01C8
:100870004F5F5F4FBE016D5F784FC7010E945C0103
:100880008823E9F18DE390E60E941F018E010F5F3E
:100890001F4FC12CD12CCF5FD84F68817981C150B7
:1008A000D740C616D70630F5F80181858F9380852D
:1008B0008F9387818F9386818F9385818F93848196
:1008C0008F9383818F9382818F9381818F93808196
:1008D0008F93BF92AF92FF92EF920E94C707C7011A
:1008E0000E941F01FFEFCF1ADF0A065F1F4FCDBF27
:1008F000DEBFD1CFCE0101960E947503ACCF80E65A
:1009000090E60E941F01CD5FD84F88819981C35026
:10091000D7400E941F019FCF5058BB27AA270E9493
:10092000A4040C94EE050E94E00538F00E94E7054F
:1009300020F039F49F3F19F426F40C94DD050EF4F1
:10094000E095E7FB0C94D705E92F0E94FF0558F3CB
:10095000BA17620773078407950720F079F4A6F5A4
:100960000C9421060EF4E0950B2EBA2FA02D0B014E
:10097000B90190010C01CA01A0011124FF27591BE4
:1009800099F0593F50F4503E68F11A16F040A22FEA
:10099000232F342F4427585FF3CF4695379527955B
:1009A000A795F0405395C9F77EF41F16BA0B620B5A
:1009B000730B840BBAF09150A1F0FF0FBB1F661FA1
:1009C000771F881FC2F70EC0BA0F621F731F841FE4
:1009D00048F4879577956795B795F7959E3F08F00A
:1009E000B0CF9395880F08F09927EE0F97958795CC
:1009F00008950E940D050C94EE050E94E70558F03D
:100A00000E94E00540F029F45F3F29F00C94D705DF
:100A100051110C9422060C94DD050E94FF0568F329
:100A20009923B1F3552391F3951B550BBB27AA27A7
:100A300062177307840738F09F5F5F4F220F331FE1
:100A4000441FAA1FA9F335D00E2E3AF0E0E832D0A9
:100A500091505040E695001CCAF72BD0FE2F29D0AC
:100A6000660F771F881FBB1F261737074807AB077E
:100A7000B0E809F0BB0B802DBF01FF2793585F4FF3
:100A80003AF09E3F510578F00C94D7050C9422065D
:100A90005F3FE4F3983ED4F3869577956795B795D5
:100AA000F7959F5FC9F7880F911D9695879597F9E0
:100AB0000895E1E0660F771F881FBB1F6217730759
:100AC0008407BA0720F0621B730B840BBA0BEE1F6E
:100AD00088F7E09508950E94070688F09F5798F0E0
:100AE000B92F9927B751B0F0E1F0660F771F881F33
:100AF000991F1AF0BA95C9F714C0B13091F00E944D
:100B00002106B1E008950C942106672F782F8827DD
:100B1000B85F39F0B93FCCF3869577956795B39573
:100B2000D9F73EF490958095709561957F4F8F4FE2
:100B30009F4F0895E89409C097FB3EF490958095E7
:100B4000709561957F4F8F4F9F4F9923A9F0F92F93
:100B500096E9BB279395F695879577956795B79511
:100B6000F111F8CFFAF4BB0F11F460FF1BC06F5FF7
:100B70007F4F8F4F9F4F16C0882311F096E911C009
:100B8000772321F09EE8872F762F05C0662371F02A
:100B900096E8862F70E060E02AF09A95660F771F3E
:100BA000881FDAF7880F9695879597F9089597F932
:100BB0009F6780E870E060E008959FEF80EC089503
:100BC00000240A941616170618060906089500242C
:100BD0000A9412161306140605060895092E0394A6
:100BE000000C11F4882352F0BB0F40F4BF2B11F41A
:100BF00060FF04C06F5F7F4F8F4F9F4F089557FD79
:100C00009058440F551F59F05F3F71F04795880F7A
:100C100097FB991F61F09F3F79F087950895121611
:100C200013061406551FF2CF4695F1DF08C01616BD
:100C300017061806991FF1CF86957105610508946E
:100C40000895E894BB2766277727CB0197F9089585
:100C50000E943B060C94EE050E94E00538F00E94CD
:100C6000E70520F0952311F00C94D7050C94DD05D1
:100C700011240C9422060E94FF0570F3959FC1F386
:100C8000950F50E0551F629FF001729FBB27F00D3A
:100C9000B11D639FAA27F00DB11DAA1F649F66278F
:100CA000B00DA11D661F829F2227B00DA11D621FDE
:100CB000739FB00DA11D621F839FA00D611D221F98
:100CC000749F3327A00D611D231F849F600D211D7C
:100CD000822F762F6A2F11249F5750409AF0F1F0FF
:100CE00088234AF0EE0FFF1FBB1F661F771F881F68
:100CF00091505040A9F79E3F510580F00C94D705C4
:100D00000C9422065F3FE4F3983ED4F386957795E2
:100D10006795B795F795E7959F5FC1F7FE2B880F0D
:100D2000911D9695879597F90895991B79E004C0D0
:100D3000991F961708F0961B881F7A95C9F780951A
:100D4000089597FB072E16F4009407D077FD09D07D
:100D50000E94B50607FC05D03EF4909581959F4F03
:100D60000895709561957F4F0895AA1BBB1B51E1B3
:100D700007C0AA1FBB1FA617B70710F0A61BB70B0B
:100D8000881F991F5A95A9F780959095BC01CD01B0
:100D90000895A0E0B0E0EFECF6E00C94BB0A5C0133
:100DA0006B017A016115710519F0FB018083918354
:100DB000E114F10429F0C7010297839708F0C9C034
:100DC000E5012196F5011081812F90E00E94BE0778
:100DD000892B11F05E01F4CF1D3229F42196F50123
:100DE000118101E007C01B3221F4E5012296F501D3
:100DF000118100E0E114F104B1F0F0E1EF16F1042B
:100E000029F4B0C010E3E114F10401F12AE0E21684
:100E1000F104B1F180E1E816F10471F0E8E0EE16BA
:100E2000F104F1F413C0103341F588818F7D8835CA
:100E300049F7198122960260F0E1EF2EF12C882407
:100E40008A94982CA82CAFE0BA2E20C078E0E72E28
:100E5000F12C88248A94982CA82CEFE1BE2E16C081
:100E60006FEF7FEFCB0197010F2C000C440B550B5C
:100E70000E948D0A49015A0109C08AE0E82EF12C2E
:100E800069E9862E982CA82C69E1B62E40E060E036
:100E900070E0CB0127010F2C000C66087708FE01DB
:100EA00050ED352E310E29E0231570F42FEB210F74
:100EB0002A3118F439EC332E06C02FE9210F2A31DC
:100EC00030F529EA322E310E232D30E02E153F0564
:100ED000F4F44F3FC9F086169706A806B90688F0C5
:100EE000A30192010E947D0A232D30E040E050E0F2
:100EF000620F731F841F951F62177307840795077E
:100F000010F44FEF01C041E021961081C8CFC11409
:100F1000D10451F0442311F0219703C001FF04C014
:100F20002297F601C083D18300FF07C0909580957A
:100F3000709561957F4F8F4F9F4F4F3F79F482E2BD
:100F400090E080937860909379603FEF2FEF9FEF70
:100F50000DC040E030E020E090E008C0462F372F81
:100F6000282F04C0103309F067CF5FCF642F732F91
:100F7000822FCDB7DEB7E1E10C94D40A91110C9425
:100F8000CA09803219F089508550C8F70895AEE03B
:100F9000B0E0EDECF7E00C94C80A0D891E8986E0FC
:100FA0008C8309831A838FEF9FE78D839E83AE0125
:100FB000475E5F4F6F89788DCE0101960E94E907E9
:100FC000EF81F885E00FF11F10822E96E4E00C947B
:100FD000E10AABE0B0E0EFEEF7E00C94BA0A6C0186
:100FE0007B018A01FC0116821782838181FFCCC1BB
:100FF000CE0101963C01F6019381F70193FD8591A5
:1010000093FF81917F01882309F4BAC1853239F4B5
:1010100093FD859193FF81917F01853229F4B6017B
:1010200090E00E94E309E7CF912C212C312CFFE1C5
:10103000F315D8F08B3279F038F4803279F08332BE
:10104000A1F4232D20611DC08D3261F0803369F43D
:10105000232D216016C0832D8260382EE32DE4609D
:101060003E2E2AC0F32DF8601DC037FC2DC020EDA8
:10107000280F2A3040F08E32B9F436FC81C1232D7E
:101080002064322E19C036FE06C08AE0989E200DDC
:101090001124922E11C0EAE02E9E200D1124222E42
:1010A000F32DF0623F2E08C08C3621F4832D80682A
:1010B000382E02C0883641F4F70193FD859193FFE5
:1010C00081917F018111B3CF982F9F7D95549330EB
:1010D00028F40C5F1F4F9FE399830DC0833631F0D6
:1010E000833771F0833509F059C021C0F801808140
:1010F00089830E5F1F4F88248394912C530113C062
:101100002801F2E04F0E511CF801A080B18036FE9C
:1011100003C0692D70E002C06FEF7FEFC5010E9430
:10112000D8094C018201F32DFF773F2E16C028010C
:1011300022E0420E511CF801A080B18036FE03C0AF
:10114000692D70E002C06FEF7FEFC5010E94CD09ED
:101150004C01F32DF0683F2E820133FC1BC0822D21
:1011600090E088169906B0F4B60180E290E00E9403
:10117000E3092A94F4CFF50137FC859137FE81917C
:101180005F01B60190E00E94E30921102A9421E05A
:10119000821A91088114910471F7E8C0843611F025
:1011A000893641F5F80137FE07C06081718182817F
:1011B00093810C5F1F4F08C060817181072E000C66
:1011C000880B990B0E5F1F4FF32DFF763F2E97FF75
:1011D00009C090958095709561957F4F8F4F9F4F77
:1011E000F0683F2E2AE030E0A3010E941F0A882EFB
:1011F000861845C0853731F4232D2F7EB22E2AE084
:1012000030E025C0932D997FB92E8F36C1F018F4A8
:10121000883579F0B5C0803719F0883721F0B0C033
:10122000E92FE061BE2EB4FE0DC0FB2DF460BF2E91
:1012300009C034FE0AC0292F2660B22E06C028E05D
:1012400030E005C020E130E002C020E132E0F801EA
:10125000B7FE07C060817181828193810C5F1F4F4F
:1012600006C06081718180E090E00E5F1F4FA30196
:101270000E941F0A882E8618FB2DFF773F2E36FE10
:101280000DC0232D2E7FA22E891458F434FE0BC0DE
:1012900032FC09C0832D8E7EA82E05C0B82CA32C4D
:1012A00003C0B82C01C0B92CA4FE0FC0FE01E80D8C
:1012B000F11D8081803321F49A2D997EA92E09C0D9
:1012C000A2FE06C0B394B39404C08A2D867809F0B8
:1012D000B394A3FC11C0A0FE06C0B21488F4280C7D
:1012E000922C9B180EC0B21460F4B60180E290E01C
:1012F0000E94E309B394F7CFB21418F42B1802C07C
:10130000982C212CA4FE10C0B60180E390E00E942E
:10131000E309A2FE17C0A1FC03C088E790E002C069
:1013200088E590E0B6010CC08A2D867859F0A1FEC0
:1013300002C08BE201C080E2A7FC8DE2B60190E022
:101340000E94E309891438F4B60180E390E00E941A
:10135000E3099A94F7CF8A94F301E80DF11D808197
:10136000B60190E00E94E3098110F5CF222009F434
:1013700042CEB60180E290E00E94E3092A94F6CFC3
:10138000F6018681978102C08FEF9FEF2B96E2E1F5
:101390000C94D30A992788270895FC010590615081
:1013A00070400110D8F7809590958E0F9F1F08957B
:1013B000FC016150704001900110D8F78095909524
:1013C0008E0F9F1F08950F931F93CF93DF93FB0101
:1013D000238121FD03C08FEF9FEF2CC022FF16C099
:1013E00046815781248135814217530744F4A081F7
:1013F000B1819D012F5F3F4F208331838C932681E4
:1014000037812F5F3F4F2683378314C08B01EC0158
:10141000FB010084F185E02D0995892BE1F6D801C7
:1014200016968D919C911797019616968D939C9385
:101430001797CE01DF91CF911F910F910895FA0177
:10144000AA27283051F1203181F1E8946F936E7F03
:101450006E5F7F4F8F4F9F4FAF4FB1E03ED0B4E0F4
:101460003CD0670F781F891F9A1FA11D680F791F35
:101470008A1F911DA11D6A0F711D811D911DA11D46
:1014800020D009F468943F912AE0269F1124301956
:10149000305D3193DEF6CF010895462F4770405DF1
:1014A0004193B3E00FD0C9F7F6CF462F4F70405DA0
:1014B0004A3318F0495D31FD4052419302D0A9F7FB
:1014C000EACFB4E0A6959795879577956795BA95F5
:1014D000C9F700976105710508959B01AC010A2EBB
:1014E00006945795479537952795BA95C9F7620F92
:1014F000731F841F951FA01D0895DB018F939F9379
:101500000E94AF0ABF91AF91A29F800D911DA39F32
:10151000900DB29F900D11240895A1E21A2EAA1BDE
:10152000BB1BFD010DC0AA1FBB1FEE1FFF1FA21793
:10153000B307E407F50720F0A21BB30BE40BF50B90
:10154000661F771F881F991F1A9469F76095709519
:10155000809590959B01AC01BD01CF0108950E943B
:10156000EB0AA59F900DB49F900DA49F800D911D37
:10157000112408952F923F924F925F926F927F9223
:101580008F929F92AF92BF92CF92DF92EF92FF9293
:101590000F931F93CF93DF93CDB7DEB7CA1BDB0B3F
:1015A000CDBFDEBF09942A88398848885F846E845D
:1015B0007D848C849B84AA84B984C884DF80EE8077
:1015C000FD800C811B81AA81B981CE0FD11DCDBFB9
:1015D000DEBFED010895A29FB001B39FC001A39F9C
:1015E000700D811D1124911DB29F700D811D11245C
:0815F000911D0895F894FFCF4E
:1015F8004001537461727465642072656164696E38
:10160800670A0063686172210A0053746172746525
:10161800642070617273696E670A0050756C736537
:10162800204269670A0050756C73650A00476F6F3E
:1016380064207061727365210A007B0A09256420A1
:101648000A09256C75200A09256C75200A7D0A008F
:0C165800426164207061727365210A0019
:00000001FF
